:1000000014C02EC02DC02CC02BC02AC04BC128C08C
:1000100027C048C325C0ACC2F7C222C021C020C03F
:100020001FC01EC01DC01CC01BC011241FBECFE5B9
:10003000D2E0DEBFCDBF10E0A0E6B0E0E4E5FAE03C
:1000400002C005900D92AE3DB107D9F721E0AEEDAB
:10005000B0E001C01D92A135B207E1F768D4F8C441
:10006000CFCF99B390FD04C082E091FF81E0089565
:1000700080E0FBCF8EB588608EBD88EE93E09BBD9F
:100080008ABD8EB582608EBD89B7806189BF0895B3
:10009000CF93DF9300D0CDB7DEB7BE016F5F7F4F48
:1000A00025D2882391F069817A81683F8FEF7807A4
:1000B0008CF06F3F8FE7780769F0665F7F4F8FEFB7
:1000C0009FEF5ED47BBD6ABD80E00F900F90DF9103
:1000D000CF91089581E0F9CFCF93DF93CDB7DEB70D
:1000E0002C970FB6F894DEBF0FBECDBF9FEF980FD1
:1000F0009430A0F49CE0E6EAF0E0DE011196019075
:100100000D929A95E1F7805D8C83ABDF811101C080
:1001100083E0805D8987CE010196D3D02C960FB6FF
:10012000F894DEBF0FBECDBFDF91CF9108958091CF
:10013000DF00D2DF15BA89B78F7E89BF1092DE004B
:1001400010920E0110920D011092E1001092DF004A
:1001500008951F93CF93DF93182FEB018FEF810F3B
:100160008430F8F480910D0190910E01892BC9F42F
:1001700089B78F7E89BF15BA85B321E030E093E05F
:10018000910F01C0220F9A95EAF7822B85BB10933D
:10019000DF0067DF209739F4812F9EDF15BA1092B8
:1001A000DF0081E01BC08823E9F0813029F41C16B0
:1001B0001D06D4F0BCDFF5CFD7FFFCCFD195C1959C
:1001C000D10981E08093E000D0930E01C0930D012E
:1001D0001DBC1CBC89B7806189BF80E0DF91CF91D5
:1001E0001F910895D7FDEACF1092E000EDCF109255
:1001F000DE0085B39091E100E0916000F091610034
:10020000E90FF11D97FDFA95807F9081892B85BBC1
:1002100028DF2091E0009091E1002223B1F091507D
:1002200097FD05C09093E1008130B1F480CF97E055
:100230009093E10020910D0130910E012150310980
:1002400030930E0120930D01EFCF9F5F98305CF447
:100250009093E100823051F380910D0190910E0155
:10026000892B21F308951092E10020910D01309126
:100270000E012150310930930E0120930D01EACF78
:1002800090ED980F983060F428E08202C0011124AC
:100290008A519140909361008093600080E00895BE
:1002A00081E008951F920F920FB60F9211248F9341
:1002B00081E08093DE008F910F900FBE0F901F9012
:1002C00018952091620020FFFCCF209162002A7FC8
:1002D000209362001092E2001092E300DC01809112
:1002E000E300803270F08091E3008032C9F4109214
:1002F000E3008091620081608093620081E090E081
:1003000008958D91882379F3E091E300F0E0EB51BB
:10031000FF4F80838091E3008F5F8093E300DFCF06
:10032000559A80E090E008958F929F92AF92BF928D
:10033000DF92EF92FF920F931F93CF93DF93CDB78E
:10034000DEB72C970FB6F894DEBF0FBECDBF1C866C
:1003500097FF3FC090958095709561957F4F8F4F27
:100360009F4FDD24D3947E012CE0E20EF11C0BE0C4
:100370002AE0822E912CA12CB12C1FEF100FA50189
:10038000940134D3605DF70162937F01B901CA0122
:100390006115710581059105F1F0012F1111EDCF66
:1003A00081E090E08C0F9D1F810F911D8ADF2C96BC
:1003B0000FB6F894DEBF0FBECDBFDF91CF911F9176
:1003C0000F91FF90EF90DF90BF90AF909F908F9034
:1003D0000895D12CC8CF112319F3DD2009F31EEFA6
:1003E000100FFE01E10FF11D8DE28183D9CF8F92B5
:1003F0009F92AF92BF92CF92DF92FF920F931F9383
:10040000CF93DF93CDB7DEB72B970FB6F894DEBF4F
:100410000FBECDBFDC016330F1F18FEF860F84306A
:10042000D0F5FE013196CE010C968F011192E8179E
:10043000F907E1F7623009F440C0643009F440C0C4
:10044000613009F042C06C9170E080E090E06E0194
:100450002BE0C20ED11C29E0F22E3AE0832E912C23
:10046000A12CB12CFA94A50194019ED2605DF601F5
:1004700062936F01B901CA0161157105810591058A
:1004800019F0FFEFFF12EECF8F2DFF0C990B0196A5
:10049000800F911F16DF2B960FB6F894DEBF0FBEAC
:1004A000CDBFDF91CF911F910F91FF90DF90CF9043
:1004B000BF90AF909F908F9008956D917C91C5CF24
:1004C0006D917D918D919C91C2CF60E070E0CB01E8
:1004D000BECFFC012081203239F037EF320F3230AD
:1004E00018F02D3009F008950196F3CF0F931F9364
:1004F000CF93DF93EB01FC0120812D3231F5019682
:1005000011E0FC0120E030E0A90181E0019190EDD3
:10051000900F9A30E0F4AAE0B0E084D29B01AC01E5
:10052000200F311D411D511D205331094109510931
:1005300080E0211590E83907410551053CF380E042
:10054000DF91CF911F910F91089510E0DACF8111C3
:10055000F6CF112339F050954095309521953F4FB6
:100560004F4F5F4F209711F03983288381E0E8CF08
:100570001F920F920FB60F9211248F939F93EF93B8
:10058000FF938CB19BB19C71D9F597EF980F923086
:1005900020F18D3011F1E091E40091E09E0F9093F5
:1005A000E400F0E0E15FFE4F80838D35F9F4809147
:1005B0006200826080936200E091E40081E08E0F2F
:1005C0008093E400F0E0E15FFE4F8AE08083E091F9
:1005D000E400F0E0E15FFE4F1082FF91EF919F9108
:1005E0008F910F900FBE0F901F9018958091E4008F
:1005F000803299F780916200826180936200EDCF32
:10060000809162008A60F9CF1F920F920FB60F920D
:1006100011248F939F93EF93FF938091E3008111B7
:100620000FC0559880916200816080936200FF91B5
:10063000EF919F918F910F900FBE0F901F90189583
:10064000E091E20081E08E0F8093E200F0E0EB5158
:10065000FF4F80818CB99091E2008091E300981364
:10066000E6CF1092E2001092E300DBCF62E087E079
:1006700091E0BDDE82EB90E024DE61E085E091E078
:10068000B6DE84EB90E01DDE62E089E091E0AFDE53
:1006900086EB90E016DE62E08BE091E0A8DE88EB6E
:1006A00090E00FCE1F920F920FB60F9211242F934E
:1006B0008F939F9382B78A5F82BF809106018F5F7D
:1006C000809306018430A1F51092060180910B0100
:1006D00090910C01019690930C0180930B01883E40
:1006E000934031F510920C0110920B018091090199
:1006F00090910A01019690930A018093090180313B
:100700009E40B1F410920A011092090180910501F6
:100710008F5F80930501883159F410920501809113
:1007200007019091080101969093080180930701B9
:100730009F918F912F910F900FBE0F901F90189542
:100740001F93CF93DF9300D0CDB7DEB7182FCB0127
:10075000BE016F5F7F4FCADE882359F069817A81BD
:1007600080ED810FF6DC0F900F90DF91CF911F91FC
:10077000089581E0F8CF1F93CF93DF9300D0CDB7DA
:10078000DEB70196A6DEFC011191CF01A2DE173380
:1007900009F44BC0ACF41233E9F134F4103361F1D5
:1007A000113379F181E030C01433D1F1B4F1163353
:1007B000C9F7FC0180818133B1F5C09A80E024C083
:1007C000123609F442C034F41833B9F1193351F731
:1007D0005FDC1AC0143709F451C0173709F450C050
:1007E0001C3601F784ED90E06CDD62E08DE091E075
:1007F000FEDD8FEA90E003C09ADC8CEB90E061DDD7
:10080000D1CFBC0181E39CDF0F900F90DF91CF919E
:100810001F910895BC0182E3F6CFBC0183E3F3CFBF
:10082000BC0184E3F0CFC098C9CFFC018081813343
:1008300011F4C19AC3CFC198C1CFFC01808181332B
:1008400011F4C29ABBCFC298B9CFBE016F5F7F4F80
:100850004DDE882309F4A6CF89819A81089708F094
:10086000A1CF87EC90E02DDD62E0CE010196BFDDE7
:1008700085EC90E026DD898188BBA0CFF7DE9ECF96
:10088000FC018081FDDCC0CFCF93DF9380916200BB
:1008900081FF21C08091620090916200957E9093CB
:1008A000620083FD1BC08295817091E08927909141
:1008B000E400933060F090910F019B3541F4E0919A
:1008C000E400F0E0E35FFE4F90819D3549F0109227
:1008D000E40010920F01DF91CF91089580E0E7CFFF
:1008E0008823C9F3E091E400F0E0E15FFE4F10825D
:1008F00080E191E0EEDDE091E4001092E400DC01A3
:100900002C91213331F7CFE0D1E0A0E3B1E0299180
:100910002D932111FCCFF0E0E35FFE4F10822BDF1F
:100920008111D9CF80E391E0DF91CF91CACC8FEFD5
:1009300084BB87E087BB15BAC19A1BB886E080BD2F
:1009400088E98AB910BC83E389B983B7826083BF21
:1009500089B7816089BF8EDB78949FE088E10FB60C
:10096000F894A89581BD0FBE91BDA8958091DE0039
:1009700081113DDC8091620081FFF7CF85DFF5CFEB
:10098000AA1BBB1B51E107C0AA1FBB1FA617B707B5
:1009900010F0A61BB70B881F991F5A95A9F78095D1
:1009A0009095BC01CD010895A1E21A2EAA1BBB1B94
:1009B000FD010DC0AA1FBB1FEE1FFF1FA217B3072B
:1009C000E407F50720F0A21BB30BE40BF50B661F41
:1009D000771F881F991F1A9469F760957095809505
:1009E00090959B01AC01BD01CF010895052E97FBA9
:1009F00016F400940FD057FD05D0D6DF07FC02D0C7
:100A000046F408C050954095309521953F4F4F4F83
:100A10005F4F089590958095709561957F4F8F4FAA
:100A20009F4F089509D0A59F900DB49F900DA49F4E
:100A3000800D911D11240895A29FB001B39FC001A4
:100A4000A39F01D0B29F700D811D1124911D0895A7
:040A5000F894FFCF48
:100A54006E0001141414080C0406020301090206B2
:100A6400040C08090103080901030206040C080A1E
:100A740002060405010907030B090D0C0E060D09F6
:100A84000B0307060E0C07060E0C0D090B030705D6
:100A94000D090B0A0E065B3120302053743D305D86
:100AA4000A006400680073006D730A0053636F7278
:100AB40070696F5F300A0073657420706F727462BE
:0E0AC40020746F005B31206C6566743D00008D
:00000001FF
