:100000000C9434000C9451000C9451000C94510049
:100010000C9451000C9451000C9451000C9451001C
:100020000C9451000C9451000C9451000C94B601A6
:100030000C9451000C9451000C9451000C945100FC
:100040000C9498030C9451000C942D030C946203AF
:100050000C9451000C9451000C9451000C945100DC
:100060000C9451000C94510011241FBECFEFD8E026
:10007000DEBFCDBF11E0A0E0B1E0E8EBFBE002C0E5
:1000800005900D92AA3BB107D9F722E0AAEBB1E0A7
:1000900001C01D92A530B207E1F70E942A050C9419
:1000A000DA050C94000086B184FF04C085FF04C00B
:1000B00080E0089581E0089582E00895E1E8F0E0AD
:1000C00080818860808380ED97E0909389008093A1
:1000D0008800808182608083EFE6F0E0808182602A
:1000E000808388B1806388B90895CF93DF9300D06F
:1000F00000D0CDB7DEB7BE016D5F7F4F0E94E60234
:100100008823B1F16B817C81683F8FEF780764F1C0
:100110006F3F8FE7780741F1665F7F4F8FEF9FEF6B
:100120000E946B057A83698380916F008D7F809335
:100130006F0089819A819093890080938800109242
:1001400085001092840080916F00826080936F0020
:100150008CE091E00E94C50162E0CE0101960E9410
:10016000660287EB91E002C08EE191E00E94C5013A
:1001700080E00F900F900F900F90DF91CF91089536
:10018000CF93DF93CDB7DEB72C970FB6F894DEBFD1
:100190000FBECDBF9FEF980F973020F59BB19C6F9E
:1001A0009BB99BB122E030E0082E01C0220F0A94D7
:1001B000EAF7209529232BB99CE0EFE2F1E0DE017C
:1001C000119601900D929A95E1F7805D8C830E94C3
:1001D0005300811101C083E0805D8987CE010196C3
:1001E0000E94C5012C960FB6F894DEBF0FBECDBF9E
:1001F000DF91CF9108958091BB010E94C0008BB127
:100200008C6F8BB988B1807F88B9EFE6F0E0808190
:100210008D7F80831092BA011092E3011092E20167
:100220001092BD011092BB0108951F93CF93DF93ED
:10023000182FEB018FEF810F863008F04AC020970E
:1002400009F447C08091E2019091E301892B09F004
:1002500040C080916F008D7F80936F008BB18C6F59
:100260008BB988B1807F88B92BB182E090E0012EF4
:1002700001C0880F0A94EAF7809582238BB90E9407
:1002800053001093BB01882379F0813021F41C16B0
:100290001D0664F01CC0D7FF1AC0D195C195D109C5
:1002A00081E08093BC0104C0D7FDF7CF1092BC0160
:1002B000D093E301C093E201109285001092840074
:1002C00080916F00826080936F0081E003C00E9484
:1002D000FB0080E0DF91CF911F9108951092BA0149
:1002E00088B1E091BD010E2E000CFF0BEC5FFE4FBC
:1002F000807F9081892B88B90E9453002091BC0196
:100300009091BD012223B9F0915097FD03C09093C5
:10031000BD010DC097E09093BD012091E2013091A5
:10032000E301215031093093E3012093E201813050
:10033000B1F40C94FB009F5F98301CF49093BD01C6
:100340000CC01092BD012091E2013091E3012150D7
:1003500031093093E3012093E201823051F380911F
:10036000E2019091E301892B21F308951F920F92EE
:100370000FB60F9211248F9381E08093BA018F9171
:100380000F900FBE0F901F9018952091000120FF35
:10039000FCCF209100012A7F209300011092BE0122
:1003A0001092BF01DC018091BF01803278F48D9101
:1003B000882361F0E091BF01F0E0EF53FE4F8083AE
:1003C0008091BF018F5F8093BF01EDCF8091BF010E
:1003D000803251F41092BF018091000181608093BE
:1003E000000181E090E008958091C10080628093D7
:1003F000C10080E090E008958F929F92AF92BF92EB
:10040000DF92EF92FF920F931F93CF93DF93CDB7BD
:10041000DEB72C970FB6F894DEBF0FBECDBF1C869B
:1004200097FF0AC090958095709561957F4F8F4F8B
:100430009F4FDD24D39401C0D12C0BE03AE0832EF2
:10044000912CA12CB12C1FEF100FEE24E394F12C72
:10045000EC0EFD1EE10EF11CA50194010E94A10508
:10046000605DF7016083B901CA01611571058105FD
:10047000910521F0012F1111E6CF0EC0112361F07B
:10048000DD2051F01EEF100FE1E0F0E0EC0FFD1F5A
:10049000E10FF11D8DE2808381E090E08C0F9D1FC4
:1004A000810F911D0E94C5012C960FB6F894DEBFF6
:1004B0000FBECDBFDF91CF911F910F91FF90EF90B5
:1004C000DF90BF90AF909F908F9008958F929F92F2
:1004D000AF92BF92CF92DF92FF920F931F93CF9371
:1004E000DF93CDB7DEB72B970FB6F894DEBF0FBE04
:1004F000CDBFDC01633009F44AC08FEF860F843032
:1005000008F045C0FE013196CE010C968F01119284
:100510008E179F07E1F7623039F0643051F0613097
:1005200069F46C9170E002C06D917C9180E090E084
:1005300008C06D917D918D919C9103C060E070E049
:10054000CB016E012BE0C20ED11C29E0F22E3AE065
:10055000832E912CA12CB12CFA94A50194010E9418
:100560007F05605DF60162936F01B901CA016115F3
:1005700071058105910519F0FFEFFF12EDCF8F2D69
:10058000FF0C990B0196800F911F0E94C5012B96BD
:100590000FB6F894DEBF0FBECDBFDF91CF911F9194
:1005A0000F91FF90DF90CF90BF90AF909F908F9072
:1005B0000895FC012081203211F40196FACF37EF23
:1005C000320F3230D0F32D30C1F308950F931F93C3
:1005D000CF93DF93EB01FC0120812D3219F40196BA
:1005E00011E001C010E0FC0120E030E0A90181E051
:1005F000019190ED900F9A30C0F4AAE0B0E00E9413
:10060000C005DC01CB01800F911DA11DB11D9C0116
:10061000AD01205331094109510980E0211590E8CD
:1006200039074105510524F310C081110EC0112373
:1006300039F050954095309521953F4F4F4F5F4F82
:10064000209729F03983288302C080E001C081E02F
:10065000DF91CF911F910F9108951F920F920FB6C6
:100660000F9211248F939F93EF93FF939091C60065
:100670008091C0008C71C1F4E091C00181E08E0FC7
:100680008093C001F0E0EC51FE4F90839A3021F44A
:100690008091000182600BC08091C001803249F4DA
:1006A00080910001826103C0809100018A60809383
:1006B0000001FF91EF919F918F910F900FBE0F90CE
:1006C0001F9018951F920F920FB60F9211248F93BF
:1006D0009F93EF93FF938091BF018823B1F0E09146
:1006E000BE0181E08E0F8093BE01F0E0EF53FE4F1C
:1006F00080818093C6009091BE018091BF019813C4
:100700000EC01092BE011092BF018091C1008F7D7A
:100710008093C10080910001816080930001FF916E
:10072000EF919F918F910F900FBE0F901F90189592
:100730001F920F920FB60F9211248F939F93809167
:10074000E101811103C085B1886385B990910101F0
:100750008091E101981301C02B9890910201809142
:10076000E101981301C02C98909103018091E1015F
:10077000981301C02D988091E1018F5F8093E10172
:100780009F918F910F900FBE0F901F901895CF9350
:10079000DF9300D01F92CDB7DEB7FC01908180EDD2
:1007A000890F8B839153963078F5CF0101960E9483
:1007B000D902BE016F5F7F4F0E94E602882321F1BC
:1007C0008BE391E00E94C50161E0CE0103960E9497
:1007D000660287E491E00E94C50169817A81072E53
:1007E000000C880B990B0E94FC018DE491E00E94A3
:1007F000C50169817A818B816115710519F00E94AB
:10080000150103C00E94C00080E00F900F900F9070
:10081000DF91CF910895CF93DF93CDB7DEB72C97BB
:100820000FB6F894DEBF0FBECDBFFC0180818D32C4
:10083000A1F48CE0E4E5F1E0DE01119601900D9267
:100840008A95E1F74C8385B1682311F080E38987AD
:10085000CE0101960E94C5010BC0803319F485B109
:10086000682B05C0813331F485B16095682365B983
:1008700081E001C080E02C960FB6F894DEBF0FBE79
:10088000CDBFDF91CF9108951F93CF93DF9300D019
:10089000CDB7DEB7162FBE016F5F7F4F0E94E60215
:1008A000882359F089819A818F3F910509F028F4B6
:1008B000E12FF0E0EF5FFE4F80830F900F90DF910C
:1008C000CF911F9108950F931F93CF9301960E948C
:1008D000D902FC01C0812FEC2C0F263028F4CF91D7
:1008E0001F910F910C94C70301960E94D9028C01AD
:1008F000C93389F15CF4C733E9F01CF5C03309F062
:1009000045C080E691E00E94C5013AC0C23651F16F
:100910003CF4C136D9F5CF911F910F910C9475001D
:10092000C33631F1C43691F584E891E00E94C501E7
:1009300062E023C088E691E00E94C50147E364E0DD
:1009400006C080E791E00E94C50148E362E0C8016B
:100950000E940B0415C085E791E00E94C50149E3A0
:1009600061E0F5CF8AE791E00E94C50160E005C033
:100970008FE791E00E94C50161E0C8010E94440434
:1009800087EB91E00E94C50181E001C080E0CF913A
:100990001F910F9108950F931F93CF9380910001A2
:1009A00081FF54C0C091000180910001857E809339
:1009B0000001C4FF06C089E891E00E94C50180E003
:1009C00001C081E0C3FF05C080EA91E00E94C5013B
:1009D00080E09091C001933060F09091E4019B35EC
:1009E00041F4E091C001F0E0EE51FE4F90819D3561
:1009F00049F01092C0018AEA91E0CF911F910F91C6
:100A00000C94C501882311F1E091C001F0E0EC5194
:100A1000FE4F108285EE91E00E94D9028C01FC010C
:100A20008081823399F4C091C0011092C00184EE9C
:100A300091E00E94C501EC2FF0E0EE51FE4F1082D4
:100A4000C801CF911F910F910C946304CF911F9116
:100A50000F9108958BB18C6F8BB988B1807F88B965
:100A60008CEF8AB9CFE0C7B985B1876085B98FE3CC
:100A700084B91092C50087E68093C4008091C000BD
:100A80008D7F8093C00086E08093C20088E98093C8
:100A9000C10085B5826085BD80916E0081608093C4
:100AA0006E000E945E00789488E190E00FB6F894A2
:100AB000A895809360000FBEC0936000A8958091B8
:100AC000BA0181110E946E018091000181FFF6CF71
:100AD0000E94CB04F3CFAA1BBB1B51E107C0AA1F86
:100AE000BB1FA617B70710F0A61BB70B881F991FCF
:100AF0005A95A9F780959095BC01CD010895A1E282
:100B00001A2EAA1BBB1BFD010DC0AA1FBB1FEE1F87
:100B1000FF1FA217B307E407F50720F0A21BB30BD2
:100B2000E40BF50B661F771F881F991F1A9469F74E
:100B300060957095809590959B01AC01BD01CF01AA
:100B40000895052E97FB1EF400940E94B80557FDEA
:100B500007D00E947F0507FC03D04EF40C94B80523
:100B600050954095309521953F4F4F4F5F4F0895D9
:100B700090958095709561957F4F8F4F9F4F089509
:100B80000E94CB05A59F900DB49F900DA49F800D52
:100B9000911D11240895A29FB001B39FC001A39F8E
:100BA000700D811D1124911DB29F700D811D1124A6
:080BB000911D0895F894FFCF98
:100BB80001141414080C0406020301095370656536
:100BC80064206368616E67656420746F2000426109
:100BD800642073706565642076616C75650A005BD6
:100BE8003220302053743D305D0A004D6F76652009
:100BF8006D6F746F72200020666F722000737465C9
:100C080070730A005B32204E2053743D315D0A0038
:100C180072657374617274005368757474657200D8
:100C28004E656F6E00466C6174004C454431004C53
:100C3800454432004C45443300496E707574206257
:100C48007566666572206F766572666C6F770A00E6
:100C58005278206572726F720A00456E7465722050
:0A0C6800225B636D645D220A000048
:00000001FF
