:100000000C9434000C9451000C9451000C94510049
:100010000C9451000C9451000C9451000C9451001C
:100020000C9451000C9451000C9451000C94D0008D
:100030000C9451000C9451000C9451000C945100FC
:100040000C94CD020C9451000C9447020C947C0249
:100050000C9451000C9451000C9451000C945100DC
:100060000C9451000C94510011241FBECFEFD8E026
:10007000DEBFCDBF11E0A0E0B1E0E4E2F9E002C0F4
:1000800005900D92AE39B107D9F721E0AEE9B1E0A4
:1000900001C01D92AA3EB207E1F70E94D4030C945E
:1000A00090040C940000E1E8F0E080818860808397
:1000B00088EE93E09093890080938800808182602D
:1000C0008083EFE6F0E08081826080830895CF93A3
:1000D000DF9300D000D0CDB7DEB7BE016D5F7F4F9C
:1000E0000E9400028823B1F16B817C81683F8FEF11
:1000F000780764F16F3F8FE7780741F1665F7F4FC4
:100100008FEF9FEF0E9421047A83698380916F00B3
:100110008D7F80936F0089819A819093890080936D
:100120008800109285001092840080916F00826098
:1001300080936F0081E091E00E94DF0062E0CE01D9
:1001400001960E9480018CE991E002C083E191E078
:100150000E94DF0080E00F900F900F900F90DF91D2
:10016000CF910895482F8FEF840F8630A0F4672B2E
:1001700091F09BB19C6F9BB998B19F6098B95BB1AE
:1001800022E030E0C90101C0880F4A95EAF78523D3
:100190008BB980E0089581E0089510929E01089542
:1001A0001F920F920FB60F9211248F9381E08093CC
:1001B0009E018F910F900FBE0F901F901895209168
:1001C000000120FFFCCF209100012A7F2093000135
:1001D0001092A0011092A101DC018091A101803256
:1001E00078F48D91882361F0E091A101F0E0ED5564
:1001F000FE4F80838091A1018F5F8093A101EDCF9D
:100200008091A101803251F41092A10180910001EE
:1002100081608093000181E090E008958091C100A9
:1002200080628093C10080E090E008958F929F9259
:10023000AF92BF92DF92EF92FF920F931F93CF93F3
:10024000DF93CDB7DEB72C970FB6F894DEBF0FBEA5
:10025000CDBF1C8697FF0AC09095809570956195DB
:100260007F4F8F4F9F4FDD24D39401C0D12C0BE0E3
:100270003AE0832E912CA12CB12C1FEF100FEE240D
:10028000E394F12CEC0EFD1EE10EF11CA50194018E
:100290000E945704605DF7016083B901CA016115CE
:1002A00071058105910521F0012F1111E6CF0EC0D6
:1002B000112361F0DD2051F01EEF100FE1E0F0E0BE
:1002C000EC0FFD1FE10FF11D8DE2808381E090E0D6
:1002D0008C0F9D1F810F911D0E94DF002C960FB681
:1002E000F894DEBF0FBECDBFDF91CF911F910F916C
:1002F000FF90EF90DF90BF90AF909F908F90089508
:100300008F929F92AF92BF92CF92DF92FF920F9304
:100310001F93CF93DF93CDB7DEB72B970FB6F8942B
:10032000DEBF0FBECDBFDC01633009F44AC08FEFE2
:10033000860F843008F045C0FE013196CE010C9640
:100340008F0111928E179F07E1F7623039F0643008
:1003500051F0613069F46C9170E002C06D917C9154
:1003600080E090E008C06D917D918D919C9103C0DB
:1003700060E070E0CB016E012BE0C20ED11C29E0E1
:10038000F22E3AE0832E912CA12CB12CFA94A501E7
:1003900094010E943504605DF60162936F01B9011A
:1003A000CA01611571058105910519F0FFEFFF1272
:1003B000EDCF8F2DFF0C990B0196800F911F0E949E
:1003C000DF002B960FB6F894DEBF0FBECDBFDF91D6
:1003D000CF911F910F91FF90DF90CF90BF90AF9082
:1003E0009F908F900895FC012081203211F4019696
:1003F000FACF37EF320F3230D0F32D30C1F30895FA
:100400000F931F93CF93DF93EB01FC0120812D32DB
:1004100019F4019611E001C010E0FC0120E030E089
:10042000A90181E0019190ED900F9A30C0F4AAE00B
:10043000B0E00E947604DC01CB01800F911DA11D6C
:10044000B11D9C01AD01205331094109510980E0E2
:10045000211590E839074105510524F310C0811199
:100460000EC0112339F050954095309521953F4F9E
:100470004F4F5F4F209729F03983288302C080E0D7
:1004800001C081E0DF91CF911F910F9108951F92DC
:100490000F920FB60F9211248F939F93EF93FF93B8
:1004A0009091C6008091C0008C71C1F4E091A201CE
:1004B00081E08E0F8093A201F0E0E753FE4F90831E
:1004C0009A3021F48091000182600BC08091A201DA
:1004D000803249F480910001826103C08091000163
:1004E0008A6080930001FF91EF919F918F910F900F
:1004F0000FBE0F901F9018951F920F920FB60F927C
:1005000011248F939F93EF93FF938091A1018823F0
:10051000B1F0E091A00181E08E0F8093A001F0E0A6
:10052000ED55FE4F80818093C6009091A00180918F
:10053000A10198130EC01092A0011092A101809108
:10054000C1008F7D8093C100809100018160809304
:100550000001FF91EF919F918F910F900FBE0F902F
:100560001F90189562E083EC91E00E94800184E284
:1005700091E00E94DF0062E085EC91E00E94800142
:1005800086E291E00E94DF0062E087EC91E00E9449
:10059000800188E291E00C94DF001F920F920FB669
:1005A0000F9211242F938F939F9386B58A5F86BDF8
:1005B0008091C7019091C80101969093C8018093E2
:1005C000C701883E934069F41092C8011092C70198
:1005D0008091C5019091C60101969093C6018093C8
:1005E000C5019F918F912F910F900FBE0F901F907B
:1005F0001895CF93DF9300D01F92CDB7DEB7FC01E3
:10060000908180ED890F8B839153963010F080E0BC
:1006100029C0CF0101960E94F301BE016F5F7F4F99
:100620000E940002882399F38CE291E00E94DF008F
:1006300061E0CE0103960E94800188E391E00E9470
:10064000DF0069817A81072E000C880B990B0E94CC
:1006500016018EE391E00E94DF0069817A818B812F
:100660000E94B2000F900F900F90DF91CF910895EC
:100670008AEC91E00E94F301FC012081223331F0E9
:10068000243709F042C00E94B2023DC001960E9488
:10069000F301FC0190818FEC890F863018F4CF01B3
:1006A0000C94F902993309F144F49733C1F0D4F46E
:1006B000903359F585E491E020C09236C9F044F4B6
:1006C000913619F5CF0101960E94F3010C94670051
:1006D000933689F09436C9F489E691E00EC08DE432
:1006E00091E00BC085E591E008C08AE591E005C086
:1006F0008FE591E002C084E691E00E94DF008CE982
:1007000091E00E94DF0081E0089580E00895CF939A
:100710008091000181FF46C0C091000180910001DD
:10072000857E80930001C4FF06C08EE691E00E94A2
:10073000DF0080E001C081E0C3FF05C085E891E0F3
:100740000E94DF0080E09091A201933060F09091D0
:10075000C9019B3541F4E091A201F0E0E953FE4F5D
:1007600090819D3539F01092A2018FE891E0CF91F0
:100770000C94DF008823B1F0E091A201F0E0E75390
:10078000FE4F1082C091A2011092A20189EC91E06B
:100790000E94DF00EC2FF0E0E953FE4F1082CF9172
:1007A0000C943803CF910895259A8BB18C6F8BB937
:1007B0008CEF8AB98BB18F608BB9CFE0C7B910923B
:1007C000C50087E68093C4008091C0008D7F809330
:1007D000C00086E08093C20088E98093C10085B59F
:1007E000836085BD80916E00816080936E000E9461
:1007F0005300789488E190E00FB6F894A895809320
:1008000060000FBEC0936000A89580919E01811189
:100810000E94CD008091C7019091C801843F914012
:1008200011F42D9A07C08091C7019091C801892BBE
:1008300009F42D988091000181FFE6CF0E94870383
:10084000E3CFAA1BBB1B51E107C0AA1FBB1FA61702
:10085000B70710F0A61BB70B881F991F5A95A9F769
:1008600080959095BC01CD010895A1E21A2EAA1B96
:10087000BB1BFD010DC0AA1FBB1FEE1FFF1FA21750
:10088000B307E407F50720F0A21BB30BE40BF50B4D
:10089000661F771F881F991F1A9469F760957095D6
:1008A000809590959B01AC01BD01CF010895052E67
:1008B00097FB1EF400940E946E0457FD07D00E941F
:1008C000350407FC03D04EF40C946E04509540950B
:1008D000309521953F4F4F4F5F4F089590958095EC
:1008E000709561957F4F8F4F9F4F08950E948104AF
:1008F000A59F900DB49F900DA49F800D911D112474
:100900000895A29FB001B39FC001A39F700D811DE8
:100910001124911DB29F700D811D1124911D089508
:04092000F894FFCF79
:10092400015370656564206368616E676564207453
:100934006F20004261642073706565642076616C89
:1009440075650A00640073006D730A004D6F766567
:10095400206D6F746F72200020666F7220007374B4
:100964006570730A007265737461727400536875FC
:1009740074746572004E656F6E00466C6174004C51
:10098400454431004C454432004C45443300496EE3
:1009940070757420627566666572206F766572661E
:1009A4006C6F770A005278206572726F720A004584
:0E09B4006E74657220225B636D645D220A0022
:00000001FF
