:100000000C9434000C9451000C9451000C94510049
:100010000C9451000C9451000C9451000C9451001C
:100020000C9451000C9451000C9451000C94B200AB
:100030000C9451000C9451000C9451000C945100FC
:100040000C94AA020C9451000C9424020C945902B2
:100050000C9451000C9451000C9451000C945100DC
:100060000C9451000C94510011241FBECFEFD8E026
:10007000DEBFCDBF11E0A0E0B1E0E0ECF8E002C0EF
:1000800005900D92AE39B107D9F721E0AEE9B1E0A4
:1000900001C01D92A93EB207E1F70E94AD030C9486
:1000A0005E040C940000E1E8F0E0808188608083C9
:1000B00088EE93E09093890080938800808182602D
:1000C0008083EFE6F0E08081826080830895CF93A3
:1000D000DF9300D000D0CDB7DEB7BE016D5F7F4F9C
:1000E0000E94DD018823B1F16B817C81683F8FEF35
:1000F000780764F16F3F8FE7780741F1665F7F4FC4
:100100008FEF9FEF0E94EF037A83698380916F00E6
:100110008D7F80936F0089819A819093890080936D
:100120008800109285001092840080916F00826098
:1001300080936F0081E091E00E94BC0062E0CE01FC
:1001400001960E945D018CE991E002C083E191E09B
:100150000E94BC0080E00F900F900F900F90DF91F5
:10016000CF9108951F920F920FB60F9211240F9006
:100170000FBE0F901F9018952091000120FFFCCF1B
:10018000209100012A7F2093000110929F0110927C
:10019000A001DC018091A001803278F48D91882348
:1001A00061F0E091A001F0E0EE55FE4F8083809178
:1001B000A0018F5F8093A001EDCF8091A0018032DC
:1001C00051F41092A00180910001816080930001A0
:1001D00081E090E008958091C10080628093C10029
:1001E00080E090E008958F929F92AF92BF92DF924D
:1001F000EF92FF920F931F93CF93DF93CDB7DEB7AC
:100200002C970FB6F894DEBF0FBECDBF1C8697FFAC
:100210000AC090958095709561957F4F8F4F9F4F45
:10022000DD24D39401C0D12C0BE03AE0832E912C35
:10023000A12CB12C1FEF100FEE24E394F12CEC0E47
:10024000FD1EE10EF11CA50194010E942504605DD4
:10025000F7016083B901CA01611571058105910536
:1002600021F0012F1111E6CF0EC0112361F0DD2026
:1002700051F01EEF100FE1E0F0E0EC0FFD1FE10F79
:10028000F11D8DE2808381E090E08C0F9D1F810F36
:10029000911D0E94BC002C960FB6F894DEBF0FBED5
:1002A000CDBFDF91CF911F910F91FF90EF90DF9025
:1002B000BF90AF909F908F9008958F929F92AF9232
:1002C000BF92CF92DF92FF920F931F93CF93DF9352
:1002D000CDB7DEB72B970FB6F894DEBF0FBECDBFFC
:1002E000DC01633009F44AC08FEF860F843008F0D8
:1002F00045C0FE013196CE010C968F0111928E17EA
:100300009F07E1F7623039F0643051F0613069F4F1
:100310006C9170E002C06D917C9180E090E008C02B
:100320006D917D918D919C9103C060E070E0CB0157
:100330006E012BE0C20ED11C29E0F22E3AE0832E92
:10034000912CA12CB12CFA94A50194010E940304D4
:10035000605DF60162936F01B901CA016115710513
:100360008105910519F0FFEFFF12EDCF8F2DFF0CE6
:10037000990B0196800F911F0E94BC002B960FB61F
:10038000F894DEBF0FBECDBFDF91CF911F910F91CB
:10039000FF90DF90CF90BF90AF909F908F90089587
:1003A000FC012081203211F40196FACF37EF320F91
:1003B0003230D0F32D30C1F308950F931F93CF93B4
:1003C000DF93EB01FC0120812D3219F4019611E03D
:1003D00001C010E0FC0120E030E0A90181E00191C2
:1003E00090ED900F9A30C0F4AAE0B0E00E9444046F
:1003F000DC01CB01800F911DA11DB11D9C01AD0140
:10040000205331094109510980E0211590E839074D
:100410004105510524F310C081110EC0112339F09C
:1004200050954095309521953F4F4F4F5F4F209706
:1004300029F03983288302C080E001C081E0DF9188
:10044000CF911F910F9108951F920F920FB60F92A7
:1004500011248F939F93EF93FF939091C600809107
:10046000C0008C71C1F4E091A10181E08E0F8093F6
:10047000A101F0E0E853FE4F90839A3021F480917F
:10048000000182600BC08091A101803249F480910B
:100490000001826103C0809100018A6080930001A5
:1004A000FF91EF919F918F910F900FBE0F901F9032
:1004B00018951F920F920FB60F9211248F939F934E
:1004C000EF93FF938091A0018823B1F0E0919F0109
:1004D00081E08E0F80939F01F0E0EE55FE4F80810A
:1004E0008093C60090919F018091A00198130EC047
:1004F00010929F011092A0018091C1008F7D809386
:10050000C10080910001816080930001FF91EF9113
:100510009F918F910F900FBE0F901F90189562E0E2
:1005200082EC91E00E945D0184E291E00E94BC00B7
:1005300062E084EC91E00E945D0186E291E00E941D
:10054000BC0062E086EC91E00E945D0188E291E0EF
:100550000C94BC001F920F920FB60F9211242F9390
:100560008F939F9386B58A5F86BD8091C6019091D7
:10057000C70101969093C7018093C601883E9340BE
:1005800069F41092C7011092C6018091C401909144
:10059000C50101969093C5018093C4019F918F91ED
:1005A0002F910F900FBE0F901F901895CF93DF9350
:1005B00000D01F92CDB7DEB7FC01908180ED890F8E
:1005C0008B839153963010F080E025C0CF010196C7
:1005D0000E94D001BE016F5F7F4F0E94DD01882322
:1005E00099F38CE291E00E94BC0061E0CE01039699
:1005F0000E945D0188E391E00E94BC0069817A81DC
:10060000072E000C880B990B0E94F3008EE391E0FB
:100610000E94BC0081E00F900F900F90DF91CF916E
:10062000089589EC91E00E94D001FC0120812233E1
:1006300031F0243709F042C00E948F023DC001967C
:100640000E94D001FC0190818FEC890F863018F454
:10065000CF010C94D602993309F144F49733C1F0D9
:10066000D4F4903359F585E491E020C09236C9F076
:1006700044F4913619F5CF0101960E94D0010C94F3
:100680006700933689F09436C9F489E691E00EC08C
:100690008DE491E00BC085E591E008C08AE591E02A
:1006A00005C08FE591E002C084E691E00E94BC00A5
:1006B0008CE991E00E94BC0081E0089580E00895FB
:1006C000CF938091000181FF46C0C09100018091CD
:1006D0000001857E80930001C4FF06C08EE691E094
:1006E0000E94BC0080E001C081E0C3FF05C085E836
:1006F00091E00E94BC0080E09091A101933060F0F5
:100700009091C8019B3541F4E091A101F0E0EA53DA
:10071000FE4F90819D3539F01092A1018FE891E054
:10072000CF910C94BC008823B1F0E091A101F0E0DE
:10073000E853FE4F1082C091A1011092A10188ECF4
:1007400091E00E94BC00EC2FF0E0EA53FE4F1082D3
:10075000CF910C941103CF910895259A8CEF8AB90B
:10076000CFE0C7B91092C50087E68093C40080919E
:10077000C0008D7F8093C00086E08093C20088E92E
:100780008093C10085B5836085BD80916E008160D6
:1007900080936E000E945300789488E190E00FB639
:1007A000F894A895809360000FBEC0936000A89550
:1007B0008091C6019091C701843F914011F42D9A18
:1007C00007C08091C6019091C701892B09F42D982B
:1007D0008091000181FFEBCF0E946003E8CFAA1B4C
:1007E000BB1B51E107C0AA1FBB1FA617B70710F01C
:1007F000A61BB70B881F991F5A95A9F7809590954E
:10080000BC01CD010895A1E21A2EAA1BBB1BFD015C
:100810000DC0AA1FBB1FEE1FFF1FA217B307E407DF
:10082000F50720F0A21BB30BE40BF50B661F771F37
:10083000881F991F1A9469F7609570958095909517
:100840009B01AC01BD01CF010895052E97FB1EF45D
:1008500000940E943C0457FD07D00E94030407FC4B
:1008600003D04EF40C943C0450954095309521955E
:100870003F4F4F4F5F4F08959095809570956195CC
:100880007F4F8F4F9F4F08950E944F04A59F900D5B
:10089000B49F900DA49F800D911D11240895A29FD7
:1008A000B001B39FC001A39F700D811D1124911D44
:1008B000B29F700D811D1124911D0895F894FFCFF2
:1008C000015370656564206368616E6765642074B8
:1008D0006F20004261642073706565642076616CEE
:1008E00075650A00640073006D730A004D6F7665CC
:1008F000206D6F746F72200020666F722000737419
:100900006570730A00726573746172740053687560
:1009100074746572004E656F6E00466C6174004CB5
:10092000454431004C454432004C45443300496E47
:1009300070757420627566666572206F7665726682
:100940006C6F770A005278206572726F720A0045E8
:0E0950006E74657220225B636D645D220A0086
:00000001FF
