:1000000014C02EC02DC02CC02BC02AC041C328C094
:1000100027C04DC325C084C1B6C122C021C020C0A5
:100020001FC01EC01DC01CC01BC011241FBECFE5B9
:10003000D2E0DEBFCDBF11E0A0E6B0E0E0EEFAE036
:1000400002C005900D92AC36B107D9F721E0ACE6BD
:10005000B1E001C01D92A73BB207E1F7A1D43EC5B4
:10006000CFCF2091600020FFFCCF209160002A7F3D
:100070002093600010926C0110926D01DC01809160
:100080006D01803278F48D91882361F0E0916D01EB
:10009000F0E0E159FE4F808380916D018F5F809386
:1000A0006D01EDCF80916D01803251F410926D01A0
:1000B0008091600081608093600081E090E008950D
:1000C000559A80E090E008958F929F92AF92BF92F0
:1000D000DF92EF92FF920F931F93CF93DF93CDB7F1
:1000E000DEB72C970FB6F894DEBF0FBECDBF1C86CF
:1000F00097FF0AC090958095709561957F4F8F4FBF
:100100009F4FDD24D39401C0D12C0BE03AE0832E25
:10011000912CA12CB12C1FEF100FEE24E394F12CA5
:10012000EC0EFD1EE10EF11CA5019401A5D4605D4D
:10013000F7016083B901CA01611571058105910557
:1001400021F0012F1111E7CF0EC0112361F0DD2046
:1001500051F01EEF100FE1E0F0E0EC0FFD1FE10F9A
:10016000F11D8DE2808381E090E08C0F9D1F810F57
:10017000911D77DF2C960FB6F894DEBF0FBECDBF72
:10018000DF91CF911F910F91FF90EF90DF90BF9083
:10019000AF909F908F9008958F929F92AF92BF9251
:1001A000CF92DF92FF920F931F93CF93DF93CDB740
:1001B000DEB72B970FB6F894DEBF0FBECDBFDC01C4
:1001C000633009F448C08FEF860F843008F043C0D5
:1001D000FE013196CE010C968F0111928E179F076A
:1001E000E1F7623039F0643051F0613069F46C91BC
:1001F00070E002C06D917C9180E090E008C06D914C
:100200007D918D919C9103C060E070E0CB016E0107
:100210002BE0C20ED11C29E0F22E3AE0832E912C65
:10022000A12CB12CFA94A501940104D4605DF601CF
:1002300062936F01B901CA016115710581059105CC
:1002400019F0FFEFFF12EECF8F2DFF0C990B0196E7
:10025000800F911F06DF2B960FB6F894DEBF0FBEFE
:10026000CDBFDF91CF911F910F91FF90DF90CF9085
:10027000BF90AF909F908F900895FC012081203215
:1002800011F40196FACF37EF320F3230D0F32D3020
:10029000C1F308950F931F93CF93DF93EB01FC01FC
:1002A00020812D3219F4019611E001C010E0FC010B
:1002B00020E030E0A90181E0019190ED900F9A30AB
:1002C000B8F4AAE0B0E0F4D3DC01CB01800F911DBB
:1002D000A11DB11D9C01AD012053310941095109F6
:1002E00080E0211590E83907410551052CF310C035
:1002F00081110EC0112339F050954095309521950C
:100300003F4F4F4F5F4F209729F03983288302C01A
:1003100080E001C081E0DF91CF911F910F9108959E
:100320001F920F920FB60F9211248F939F93EF930A
:10033000FF939CB18BB18C71C1F4E0916E0181E0AF
:100340008E0F80936E01F0E0EC56FE4F90839A3052
:1003500021F48091600082600BC080916E01803238
:1003600049F480916000826103C0809160008A60DE
:1003700080936000FF91EF919F918F910F900FBE3E
:100380000F901F9018951F920F920FB60F92112485
:100390008F939F93EF93FF9380916D018823A9F032
:1003A000E0916C0181E08E0F80936C01F0E0E159E7
:1003B000FE4F80818CB990916C0180916D019813F2
:1003C0000AC010926C0110926D01559880916000E6
:1003D000816080936000FF91EF919F918F910F90CA
:1003E0000FBE0F901F90189583B384FF04C085FF44
:1003F00004C080E0089581E0089582E008958EB5FC
:1004000088608EBD80ED97E09BBD8ABD8EB5826011
:100410008EBD89B7806189BF85B3806385BB089530
:10042000CF93DF9300D000D0CDB7DEB7BE016D5FB4
:100430007F4F30DF882351F16B817C81683F8FEFE4
:1004400078070CF16F3F8FE77807E9F0665F7F4F21
:100450008FEF9FEFDBD27A83698389B78F7E89BF65
:1004600089819A819BBD8ABD1DBC1CBC89B78061F6
:1004700089BF86EA90E0F5DD62E0CE0101968CDE70
:1004800089E691E002C088EB90E0EBDD80E00F9020
:100490000F900F900F90DF91CF910895CF93DF933E
:1004A000CDB7DEB72C970FB6F894DEBF0FBECDBF29
:1004B0009FEF980F973010F592B39C6F92BB92B359
:1004C00022E030E0082E01C0220F0A94EAF72095BE
:1004D000292322BB9CE0E9ECF0E0DE0111960190BB
:1004E0000D929A95E1F7805D8C837EDF811101C0CA
:1004F00083E0805D8987CE010196B3DD2C960FB62F
:10050000F894DEBF0FBECDBFDF91CF9108958091EB
:100510009001C4DF82B38C6F82BB85B38F6085BBD3
:1005200089B78F7E89BF10928F011092B601109209
:10053000B501109292011092900108951F93CF93EC
:10054000DF93182FEB018FEF810F863008F040C04A
:100550002097F1F18091B5019091B601892BC1F5F9
:1005600089B78F7E89BF82B38C6F82BB85B38F6062
:1005700085BB22B382E090E0012E01C0880F0A946F
:10058000EAF78095822382BB2FDF109390018823A6
:1005900079F0813021F41C161D0664F018C0D7FFD5
:1005A00016C0D195C195D10981E08093910104C015
:1005B000D7FDF7CF10929101D093B601C093B5014A
:1005C0001DBC1CBC89B7806189BF81E002C09FDF70
:1005D00080E0DF91CF911F91089510928F0185B334
:1005E00090919201E0916100F0916200E90FF11D9C
:1005F00097FDFA95807F9081892B85BBF5DE209150
:100600009101909192012223B1F0915097FD03C086
:10061000909392010DC097E0909392012091B501C3
:100620003091B601215031093093B6012093B501C4
:100630008130A9F46CCF9F5F98301CF490939201A5
:100640000CC0109292012091B5013091B601215059
:1006500031093093B6012093B501823059F380916E
:10066000B5019091B601892B29F308959FE9980F60
:10067000983060F428E08202C0011124825A92402E
:10068000909362008093610081E0089580E0089576
:100690001F920F920FB60F9211248F9381E08093D7
:1006A0008F018F910F900FBE0F901F9018951F9282
:1006B0000F920FB60F9211248F939F938091930105
:1006C000811103C08BB387608BBB909163008091D5
:1006D0009301981301C0D898909164008091930180
:1006E000981301C0D9989091650080919301981357
:1006F00001C0DA98809193018F5F809393019F915D
:100700008F910F900FBE0F901F901895CF93DF938E
:1007100000D01F92CDB7DEB7FC01908180ED890F2C
:100720008B839153963030F5CF010196A6DDBE0143
:100730006F5F7F4FAFDD8823E9F08DEE90E091DCB5
:1007400061E0CE01039628DD89EF90E08ADC6981C3
:100750007A81072E000C880B990BB6DC8FEF90E0A6
:1007600080DC69817A818B816115710511F0E6DE8B
:1007700002C094DE80E00F900F900F90DF91CF9138
:100780000895CF93DF93CDB7DEB72C970FB6F894CB
:10079000DEBF0FBECDBFFC0180818D3299F48CE0AD
:1007A000E6E0F1E0DE01119601900D928A95E1F705
:1007B0004C838BB3682311F080E38987CE010196C7
:1007C00050DC0BC0803319F48BB3682B05C0813328
:1007D00031F48BB3609568236BBB81E001C080E08E
:1007E0002C960FB6F894DEBF0FBECDBFDF91CF9130
:1007F00008951F93CF93DF9300D0CDB7DEB7162FA8
:10080000BE016F5F7F4F46DD882359F089819A8151
:100810008F3F910509F028F4E12FF0E0ED59FF4FEB
:1008200080830F900F90DF91CF911F9108950F93C8
:100830001F93CF93019621DDFC01C0812FEC2C0F7B
:10084000263020F4CF911F910F9160CF019615DDD6
:100850008C01C93359F154F4C733D1F0FCF4C033DF
:10086000D9F582E191E0FDDB52DE31C0C23621F1E3
:1008700034F4C13689F5CF911F910F91D1CDC33694
:1008800001F1C43649F586E391E0EBDB62E01DC07F
:100890008AE191E0E6DB47E360E805C082E291E0AF
:1008A000E0DB48E360E4C8016CDF11C087E291E05F
:1008B000D8DB49E360E2F7CF8CE291E0D2DB60E085
:1008C00004C081E391E0CDDB61E0C80192DF89E6FD
:1008D00091E0C7DB81E001C080E0CF911F910F91D3
:1008E00008950F931F93CF938091600081FF54C0B0
:1008F000C091600080916000857E80936000C4FF9D
:1009000005C08BE391E0ADDB80E001C081E0C3FF77
:1009100004C082E591E0A5DB80E090916E01933008
:1009200060F0909194019B3541F4E0916E01F0E00C
:10093000EE56FE4F90819D3571F084E991E091DB98
:100940008091940193DE811103C08CE591E089DBF5
:1009500010926E0121C08823F9F0E0916E01F0E061
:10096000EC56FE4F108285E991E087DC8C01FC019A
:100970008081823389F4C0916E0110926E0184E906
:1009800091E06FDBEC2FF0E0EE56FE4F1082C801D5
:10099000CF911F910F914BCFCF911F910F91089540
:1009A00082B38C6F82BB85B38F6085BB8CEF81BBBC
:1009B000CFE0C4BB8BB3806E8BBB87EE8ABB5998EC
:1009C0008FE780BD81E089B986E080BD88E98AB97A
:1009D00083B7826083BF89B7816089BF10DD789457
:1009E00088E190E00FB6F894A89581BD0FBEC1BD17
:1009F00085ED90E036DBA89580918F018111EDDDCA
:100A00008091600081FFF7CF6CDFF5CFAA1BBB1B85
:100A100051E107C0AA1FBB1FA617B70710F0A61BFE
:100A2000B70B881F991F5A95A9F780959095BC011F
:100A3000CD010895A1E21A2EAA1BBB1BFD010DC01A
:100A4000AA1FBB1FEE1FFF1FA217B307E407F5077E
:100A500020F0A21BB30BE40BF50B661F771F881F5A
:100A6000991F1A9469F760957095809590959B01F0
:100A7000AC01BD01CF010895052E97FB16F400943B
:100A80000FD057FD05D0D6DF07FC02D046F408C0D2
:100A900050954095309521953F4F4F4F5F4F0895AA
:100AA00090958095709561957F4F8F4F9F4F0895DA
:100AB00009D0A59F900DB49F900DA49F800D911D0E
:100AC00011240895A29FB001B39FC001A39F01D03C
:100AD000B29F700D811D1124911D0895F894FFCFD0
:100AE000016600141414080C04060203010902062E
:100AF000040C08090103080901030206040C080A92
:100B000002060405010907030B090D0C0E060D0969
:100B10000B0307060E0C07060E0C0D090B03070549
:100B20000D090B0A0E065370656564206368616EDB
:100B300067656420746F200042616420737065658E
:100B4000642076616C75650A005B32203020537436
:100B50003D305D0A0053636F7270696F20706C6185
:100B600074666F726D2072656164790A004D6F76EC
:100B700065206D6F746F72200020666F72200073A5
:100B8000746570730A005B32204E2053743D315DF2
:100B90000A007265737461727400536875747465C9
:100BA00072004E656F6E00466C6174004C454431B6
:100BB000004C454432004C45443300496E70757416
:100BC00020627566666572206F766572666C6F77F7
:100BD0000A005278206572726F720A00456E746561
:0C0BE0007220225B636D645D220A00003D
:00000001FF
